{
  "_format": "hh-sol-artifact-1",
  "contractName": "VirtualHuman",
  "sourceName": "contracts/NFT/VirtualHuman.sol",
  "abi": [
    {
      "inputs": [],
      "stateMutability": "nonpayable",
      "type": "constructor"
    },
    {
      "inputs": [],
      "name": "ERC721EnumerableForbiddenBatchMint",
      "type": "error"
    },
    {
      "inputs": [
        {
          "internalType": "address",
          "name": "sender",
          "type": "address"
        },
        {
          "internalType": "uint256",
          "name": "tokenId",
          "type": "uint256"
        },
        {
          "internalType": "address",
          "name": "owner",
          "type": "address"
        }
      ],
      "name": "ERC721IncorrectOwner",
      "type": "error"
    },
    {
      "inputs": [
        {
          "internalType": "address",
          "name": "operator",
          "type": "address"
        },
        {
          "internalType": "uint256",
          "name": "tokenId",
          "type": "uint256"
        }
      ],
      "name": "ERC721InsufficientApproval",
      "type": "error"
    },
    {
      "inputs": [
        {
          "internalType": "address",
          "name": "approver",
          "type": "address"
        }
      ],
      "name": "ERC721InvalidApprover",
      "type": "error"
    },
    {
      "inputs": [
        {
          "internalType": "address",
          "name": "operator",
          "type": "address"
        }
      ],
      "name": "ERC721InvalidOperator",
      "type": "error"
    },
    {
      "inputs": [
        {
          "internalType": "address",
          "name": "owner",
          "type": "address"
        }
      ],
      "name": "ERC721InvalidOwner",
      "type": "error"
    },
    {
      "inputs": [
        {
          "internalType": "address",
          "name": "receiver",
          "type": "address"
        }
      ],
      "name": "ERC721InvalidReceiver",
      "type": "error"
    },
    {
      "inputs": [
        {
          "internalType": "address",
          "name": "sender",
          "type": "address"
        }
      ],
      "name": "ERC721InvalidSender",
      "type": "error"
    },
    {
      "inputs": [
        {
          "internalType": "uint256",
          "name": "tokenId",
          "type": "uint256"
        }
      ],
      "name": "ERC721NonexistentToken",
      "type": "error"
    },
    {
      "inputs": [
        {
          "internalType": "address",
          "name": "owner",
          "type": "address"
        },
        {
          "internalType": "uint256",
          "name": "index",
          "type": "uint256"
        }
      ],
      "name": "ERC721OutOfBoundsIndex",
      "type": "error"
    },
    {
      "inputs": [
        {
          "internalType": "address",
          "name": "owner",
          "type": "address"
        }
      ],
      "name": "OwnableInvalidOwner",
      "type": "error"
    },
    {
      "inputs": [
        {
          "internalType": "address",
          "name": "account",
          "type": "address"
        }
      ],
      "name": "OwnableUnauthorizedAccount",
      "type": "error"
    },
    {
      "anonymous": false,
      "inputs": [
        {
          "indexed": true,
          "internalType": "address",
          "name": "owner",
          "type": "address"
        },
        {
          "indexed": true,
          "internalType": "address",
          "name": "approved",
          "type": "address"
        },
        {
          "indexed": true,
          "internalType": "uint256",
          "name": "tokenId",
          "type": "uint256"
        }
      ],
      "name": "Approval",
      "type": "event"
    },
    {
      "anonymous": false,
      "inputs": [
        {
          "indexed": true,
          "internalType": "address",
          "name": "owner",
          "type": "address"
        },
        {
          "indexed": true,
          "internalType": "address",
          "name": "operator",
          "type": "address"
        },
        {
          "indexed": false,
          "internalType": "bool",
          "name": "approved",
          "type": "bool"
        }
      ],
      "name": "ApprovalForAll",
      "type": "event"
    },
    {
      "anonymous": false,
      "inputs": [
        {
          "indexed": true,
          "internalType": "address",
          "name": "previousOwner",
          "type": "address"
        },
        {
          "indexed": true,
          "internalType": "address",
          "name": "newOwner",
          "type": "address"
        }
      ],
      "name": "OwnershipTransferred",
      "type": "event"
    },
    {
      "anonymous": false,
      "inputs": [
        {
          "indexed": true,
          "internalType": "address",
          "name": "from",
          "type": "address"
        },
        {
          "indexed": true,
          "internalType": "address",
          "name": "to",
          "type": "address"
        },
        {
          "indexed": true,
          "internalType": "uint256",
          "name": "tokenId",
          "type": "uint256"
        }
      ],
      "name": "Transfer",
      "type": "event"
    },
    {
      "inputs": [],
      "name": "TokenIdIndex",
      "outputs": [
        {
          "internalType": "uint256",
          "name": "",
          "type": "uint256"
        }
      ],
      "stateMutability": "view",
      "type": "function"
    },
    {
      "inputs": [
        {
          "internalType": "address",
          "name": "to",
          "type": "address"
        },
        {
          "internalType": "uint256",
          "name": "tokenId",
          "type": "uint256"
        }
      ],
      "name": "approve",
      "outputs": [],
      "stateMutability": "nonpayable",
      "type": "function"
    },
    {
      "inputs": [
        {
          "internalType": "address",
          "name": "owner",
          "type": "address"
        }
      ],
      "name": "balanceOf",
      "outputs": [
        {
          "internalType": "uint256",
          "name": "",
          "type": "uint256"
        }
      ],
      "stateMutability": "view",
      "type": "function"
    },
    {
      "inputs": [
        {
          "internalType": "uint256",
          "name": "tokenId",
          "type": "uint256"
        }
      ],
      "name": "getApproved",
      "outputs": [
        {
          "internalType": "address",
          "name": "",
          "type": "address"
        }
      ],
      "stateMutability": "view",
      "type": "function"
    },
    {
      "inputs": [
        {
          "internalType": "address",
          "name": "owner",
          "type": "address"
        },
        {
          "internalType": "address",
          "name": "operator",
          "type": "address"
        }
      ],
      "name": "isApprovedForAll",
      "outputs": [
        {
          "internalType": "bool",
          "name": "",
          "type": "bool"
        }
      ],
      "stateMutability": "view",
      "type": "function"
    },
    {
      "inputs": [
        {
          "internalType": "address",
          "name": "to",
          "type": "address"
        }
      ],
      "name": "mint",
      "outputs": [],
      "stateMutability": "nonpayable",
      "type": "function"
    },
    {
      "inputs": [],
      "name": "name",
      "outputs": [
        {
          "internalType": "string",
          "name": "",
          "type": "string"
        }
      ],
      "stateMutability": "view",
      "type": "function"
    },
    {
      "inputs": [
        {
          "internalType": "uint256",
          "name": "",
          "type": "uint256"
        }
      ],
      "name": "nameOfTokenId",
      "outputs": [
        {
          "internalType": "string",
          "name": "",
          "type": "string"
        }
      ],
      "stateMutability": "view",
      "type": "function"
    },
    {
      "inputs": [],
      "name": "owner",
      "outputs": [
        {
          "internalType": "address",
          "name": "",
          "type": "address"
        }
      ],
      "stateMutability": "view",
      "type": "function"
    },
    {
      "inputs": [
        {
          "internalType": "uint256",
          "name": "tokenId",
          "type": "uint256"
        }
      ],
      "name": "ownerOf",
      "outputs": [
        {
          "internalType": "address",
          "name": "",
          "type": "address"
        }
      ],
      "stateMutability": "view",
      "type": "function"
    },
    {
      "inputs": [],
      "name": "renounceOwnership",
      "outputs": [],
      "stateMutability": "nonpayable",
      "type": "function"
    },
    {
      "inputs": [
        {
          "internalType": "address",
          "name": "from",
          "type": "address"
        },
        {
          "internalType": "address",
          "name": "to",
          "type": "address"
        },
        {
          "internalType": "uint256",
          "name": "tokenId",
          "type": "uint256"
        }
      ],
      "name": "safeTransferFrom",
      "outputs": [],
      "stateMutability": "nonpayable",
      "type": "function"
    },
    {
      "inputs": [
        {
          "internalType": "address",
          "name": "from",
          "type": "address"
        },
        {
          "internalType": "address",
          "name": "to",
          "type": "address"
        },
        {
          "internalType": "uint256",
          "name": "tokenId",
          "type": "uint256"
        },
        {
          "internalType": "bytes",
          "name": "data",
          "type": "bytes"
        }
      ],
      "name": "safeTransferFrom",
      "outputs": [],
      "stateMutability": "nonpayable",
      "type": "function"
    },
    {
      "inputs": [
        {
          "internalType": "address",
          "name": "operator",
          "type": "address"
        },
        {
          "internalType": "bool",
          "name": "approved",
          "type": "bool"
        }
      ],
      "name": "setApprovalForAll",
      "outputs": [],
      "stateMutability": "nonpayable",
      "type": "function"
    },
    {
      "inputs": [
        {
          "internalType": "bytes4",
          "name": "interfaceId",
          "type": "bytes4"
        }
      ],
      "name": "supportsInterface",
      "outputs": [
        {
          "internalType": "bool",
          "name": "",
          "type": "bool"
        }
      ],
      "stateMutability": "view",
      "type": "function"
    },
    {
      "inputs": [],
      "name": "symbol",
      "outputs": [
        {
          "internalType": "string",
          "name": "",
          "type": "string"
        }
      ],
      "stateMutability": "view",
      "type": "function"
    },
    {
      "inputs": [
        {
          "internalType": "uint256",
          "name": "index",
          "type": "uint256"
        }
      ],
      "name": "tokenByIndex",
      "outputs": [
        {
          "internalType": "uint256",
          "name": "",
          "type": "uint256"
        }
      ],
      "stateMutability": "view",
      "type": "function"
    },
    {
      "inputs": [
        {
          "internalType": "address",
          "name": "owner",
          "type": "address"
        },
        {
          "internalType": "uint256",
          "name": "index",
          "type": "uint256"
        }
      ],
      "name": "tokenOfOwnerByIndex",
      "outputs": [
        {
          "internalType": "uint256",
          "name": "",
          "type": "uint256"
        }
      ],
      "stateMutability": "view",
      "type": "function"
    },
    {
      "inputs": [
        {
          "internalType": "uint256",
          "name": "tokenId",
          "type": "uint256"
        }
      ],
      "name": "tokenURI",
      "outputs": [
        {
          "internalType": "string",
          "name": "",
          "type": "string"
        }
      ],
      "stateMutability": "view",
      "type": "function"
    },
    {
      "inputs": [],
      "name": "totalSupply",
      "outputs": [
        {
          "internalType": "uint256",
          "name": "",
          "type": "uint256"
        }
      ],
      "stateMutability": "view",
      "type": "function"
    },
    {
      "inputs": [
        {
          "internalType": "address",
          "name": "from",
          "type": "address"
        },
        {
          "internalType": "address",
          "name": "to",
          "type": "address"
        },
        {
          "internalType": "uint256",
          "name": "tokenId",
          "type": "uint256"
        }
      ],
      "name": "transferFrom",
      "outputs": [],
      "stateMutability": "nonpayable",
      "type": "function"
    },
    {
      "inputs": [
        {
          "internalType": "address",
          "name": "newOwner",
          "type": "address"
        }
      ],
      "name": "transferOwnership",
      "outputs": [],
      "stateMutability": "nonpayable",
      "type": "function"
    }
  ],
  "bytecode": "0x60806040526000600b553480156200001657600080fd5b506040518060400160405280601081526020017f4149207669727475616c2068756d616e000000000000000000000000000000008152506040518060400160405280600481526020017f414956480000000000000000000000000000000000000000000000000000000081525033600073ffffffffffffffffffffffffffffffffffffffff168173ffffffffffffffffffffffffffffffffffffffff1603620000f95760006040517f1e4fbdf7000000000000000000000000000000000000000000000000000000008152600401620000f0919062000240565b60405180910390fd5b6200010a816200013760201b60201c565b5081600190816200011c9190620004d7565b5080600290816200012e9190620004d7565b505050620005be565b60008060009054906101000a900473ffffffffffffffffffffffffffffffffffffffff169050816000806101000a81548173ffffffffffffffffffffffffffffffffffffffff021916908373ffffffffffffffffffffffffffffffffffffffff1602179055508173ffffffffffffffffffffffffffffffffffffffff168173ffffffffffffffffffffffffffffffffffffffff167f8be0079c531659141344cd1fd0a4f28419497f9722a3daafe3b4186f6b6457e060405160405180910390a35050565b600073ffffffffffffffffffffffffffffffffffffffff82169050919050565b60006200022882620001fb565b9050919050565b6200023a816200021b565b82525050565b60006020820190506200025760008301846200022f565b92915050565b600081519050919050565b7f4e487b7100000000000000000000000000000000000000000000000000000000600052604160045260246000fd5b7f4e487b7100000000000000000000000000000000000000000000000000000000600052602260045260246000fd5b60006002820490506001821680620002df57607f821691505b602082108103620002f557620002f462000297565b5b50919050565b60008190508160005260206000209050919050565b60006020601f8301049050919050565b600082821b905092915050565b6000600883026200035f7fffffffffffffffffffffffffffffffffffffffffffffffffffffffffffffffff8262000320565b6200036b868362000320565b95508019841693508086168417925050509392505050565b6000819050919050565b6000819050919050565b6000620003b8620003b2620003ac8462000383565b6200038d565b62000383565b9050919050565b6000819050919050565b620003d48362000397565b620003ec620003e382620003bf565b8484546200032d565b825550505050565b600090565b62000403620003f4565b62000410818484620003c9565b505050565b5b8181101562000438576200042c600082620003f9565b60018101905062000416565b5050565b601f82111562000487576200045181620002fb565b6200045c8462000310565b810160208510156200046c578190505b620004846200047b8562000310565b83018262000415565b50505b505050565b600082821c905092915050565b6000620004ac600019846008026200048c565b1980831691505092915050565b6000620004c7838362000499565b9150826002028217905092915050565b620004e2826200025d565b67ffffffffffffffff811115620004fe57620004fd62000268565b5b6200050a8254620002c6565b620005178282856200043c565b600060209050601f8311600181146200054f57600084156200053a578287015190505b620005468582620004b9565b865550620005b6565b601f1984166200055f86620002fb565b60005b82811015620005895784890151825560018201915060208501945060208101905062000562565b86831015620005a95784890151620005a5601f89168262000499565b8355505b6001600288020188555050505b505050505050565b6128e580620005ce6000396000f3fe608060405234801561001057600080fd5b50600436106101425760003560e01c80636a627842116100b8578063a22cb4651161007c578063a22cb46514610377578063a78d243114610393578063b88d4fde146103c3578063c87b56dd146103df578063e985e9c51461040f578063f2fde38b1461043f57610142565b80636a627842146102e557806370a0823114610301578063715018a6146103315780638da5cb5b1461033b57806395d89b411461035957610142565b806322da47d61161010a57806322da47d6146101ff57806323b872dd1461021d5780632f745c591461023957806342842e0e146102695780634f6ccce7146102855780636352211e146102b557610142565b806301ffc9a71461014757806306fdde0314610177578063081812fc14610195578063095ea7b3146101c557806318160ddd146101e1575b600080fd5b610161600480360381019061015c9190612010565b61045b565b60405161016e9190612058565b60405180910390f35b61017f6104d5565b60405161018c9190612103565b60405180910390f35b6101af60048036038101906101aa919061215b565b610567565b6040516101bc91906121c9565b60405180910390f35b6101df60048036038101906101da9190612210565b610583565b005b6101e9610599565b6040516101f6919061225f565b60405180910390f35b6102076105a6565b604051610214919061225f565b60405180910390f35b6102376004803603810190610232919061227a565b6105ac565b005b610253600480360381019061024e9190612210565b6106ae565b604051610260919061225f565b60405180910390f35b610283600480360381019061027e919061227a565b610757565b005b61029f600480360381019061029a919061215b565b610777565b6040516102ac919061225f565b60405180910390f35b6102cf60048036038101906102ca919061215b565b6107ed565b6040516102dc91906121c9565b60405180910390f35b6102ff60048036038101906102fa91906122cd565b6107ff565b005b61031b600480360381019061031691906122cd565b61082b565b604051610328919061225f565b60405180910390f35b6103396108e5565b005b6103436108f9565b60405161035091906121c9565b60405180910390f35b610361610922565b60405161036e9190612103565b60405180910390f35b610391600480360381019061038c9190612326565b6109b4565b005b6103ad60048036038101906103a8919061215b565b6109ca565b6040516103ba9190612103565b60405180910390f35b6103dd60048036038101906103d8919061249b565b610a6a565b005b6103f960048036038101906103f4919061215b565b610a87565b6040516104069190612103565b60405180910390f35b6104296004803603810190610424919061251e565b610af0565b6040516104369190612058565b60405180910390f35b610459600480360381019061045491906122cd565b610b84565b005b60007f780e9d63000000000000000000000000000000000000000000000000000000007bffffffffffffffffffffffffffffffffffffffffffffffffffffffff1916827bffffffffffffffffffffffffffffffffffffffffffffffffffffffff191614806104ce57506104cd82610c0a565b5b9050919050565b6060600180546104e49061258d565b80601f01602080910402602001604051908101604052809291908181526020018280546105109061258d565b801561055d5780601f106105325761010080835404028352916020019161055d565b820191906000526020600020905b81548152906001019060200180831161054057829003601f168201915b5050505050905090565b600061057282610cec565b5061057c82610d74565b9050919050565b6105958282610590610db1565b610db9565b5050565b6000600980549050905090565b600b5481565b600073ffffffffffffffffffffffffffffffffffffffff168273ffffffffffffffffffffffffffffffffffffffff160361061e5760006040517f64a0ae9200000000000000000000000000000000000000000000000000000000815260040161061591906121c9565b60405180910390fd5b6000610632838361062d610db1565b610dcb565b90508373ffffffffffffffffffffffffffffffffffffffff168173ffffffffffffffffffffffffffffffffffffffff16146106a8578382826040517f64283d7b00000000000000000000000000000000000000000000000000000000815260040161069f939291906125be565b60405180910390fd5b50505050565b60006106b98361082b565b82106106fe5782826040517fa57d13dc0000000000000000000000000000000000000000000000000000000081526004016106f59291906125f5565b60405180910390fd5b600760008473ffffffffffffffffffffffffffffffffffffffff1673ffffffffffffffffffffffffffffffffffffffff168152602001908152602001600020600083815260200190815260200160002054905092915050565b61077283838360405180602001604052806000815250610a6a565b505050565b6000610781610599565b82106107c7576000826040517fa57d13dc0000000000000000000000000000000000000000000000000000000081526004016107be9291906125f5565b60405180910390fd5b600982815481106107db576107da61261e565b5b90600052602060002001549050919050565b60006107f882610cec565b9050919050565b610807610ee8565b6001600b54610816919061267c565b600b8190555061082881600b54610f6f565b50565b60008073ffffffffffffffffffffffffffffffffffffffff168273ffffffffffffffffffffffffffffffffffffffff160361089e5760006040517f89c62b6400000000000000000000000000000000000000000000000000000000815260040161089591906121c9565b60405180910390fd5b600460008373ffffffffffffffffffffffffffffffffffffffff1673ffffffffffffffffffffffffffffffffffffffff168152602001908152602001600020549050919050565b6108ed610ee8565b6108f76000611068565b565b60008060009054906101000a900473ffffffffffffffffffffffffffffffffffffffff16905090565b6060600280546109319061258d565b80601f016020809104026020016040519081016040528092919081815260200182805461095d9061258d565b80156109aa5780601f1061097f576101008083540402835291602001916109aa565b820191906000526020600020905b81548152906001019060200180831161098d57829003601f168201915b5050505050905090565b6109c66109bf610db1565b838361112c565b5050565b600c60205280600052604060002060009150905080546109e99061258d565b80601f0160208091040260200160405190810160405280929190818152602001828054610a159061258d565b8015610a625780601f10610a3757610100808354040283529160200191610a62565b820191906000526020600020905b815481529060010190602001808311610a4557829003601f168201915b505050505081565b610a758484846105ac565b610a818484848461129b565b50505050565b6060610a9282610cec565b506000610a9d611452565b90506000815111610abd5760405180602001604052806000815250610ae8565b80610ac784611472565b604051602001610ad89291906126ec565b6040516020818303038152906040525b915050919050565b6000600660008473ffffffffffffffffffffffffffffffffffffffff1673ffffffffffffffffffffffffffffffffffffffff16815260200190815260200160002060008373ffffffffffffffffffffffffffffffffffffffff1673ffffffffffffffffffffffffffffffffffffffff16815260200190815260200160002060009054906101000a900460ff16905092915050565b610b8c610ee8565b600073ffffffffffffffffffffffffffffffffffffffff168173ffffffffffffffffffffffffffffffffffffffff1603610bfe5760006040517f1e4fbdf7000000000000000000000000000000000000000000000000000000008152600401610bf591906121c9565b60405180910390fd5b610c0781611068565b50565b60007f80ac58cd000000000000000000000000000000000000000000000000000000007bffffffffffffffffffffffffffffffffffffffffffffffffffffffff1916827bffffffffffffffffffffffffffffffffffffffffffffffffffffffff19161480610cd557507f5b5e139f000000000000000000000000000000000000000000000000000000007bffffffffffffffffffffffffffffffffffffffffffffffffffffffff1916827bffffffffffffffffffffffffffffffffffffffffffffffffffffffff1916145b80610ce55750610ce482611540565b5b9050919050565b600080610cf8836115aa565b9050600073ffffffffffffffffffffffffffffffffffffffff168173ffffffffffffffffffffffffffffffffffffffff1603610d6b57826040517f7e273289000000000000000000000000000000000000000000000000000000008152600401610d62919061225f565b60405180910390fd5b80915050919050565b60006005600083815260200190815260200160002060009054906101000a900473ffffffffffffffffffffffffffffffffffffffff169050919050565b600033905090565b610dc683838360016115e7565b505050565b600080610dd98585856117ac565b9050600073ffffffffffffffffffffffffffffffffffffffff168173ffffffffffffffffffffffffffffffffffffffff1603610e1d57610e18846119c6565b610e5c565b8473ffffffffffffffffffffffffffffffffffffffff168173ffffffffffffffffffffffffffffffffffffffff1614610e5b57610e5a8185611a0f565b5b5b600073ffffffffffffffffffffffffffffffffffffffff168573ffffffffffffffffffffffffffffffffffffffff1603610e9e57610e9984611b70565b610edd565b8473ffffffffffffffffffffffffffffffffffffffff168173ffffffffffffffffffffffffffffffffffffffff1614610edc57610edb8585611c41565b5b5b809150509392505050565b610ef0610db1565b73ffffffffffffffffffffffffffffffffffffffff16610f0e6108f9565b73ffffffffffffffffffffffffffffffffffffffff1614610f6d57610f31610db1565b6040517f118cdaa7000000000000000000000000000000000000000000000000000000008152600401610f6491906121c9565b60405180910390fd5b565b600073ffffffffffffffffffffffffffffffffffffffff168273ffffffffffffffffffffffffffffffffffffffff1603610fe15760006040517f64a0ae92000000000000000000000000000000000000000000000000000000008152600401610fd891906121c9565b60405180910390fd5b6000610fef83836000610dcb565b9050600073ffffffffffffffffffffffffffffffffffffffff168173ffffffffffffffffffffffffffffffffffffffff16146110635760006040517f73c6ac6e00000000000000000000000000000000000000000000000000000000815260040161105a91906121c9565b60405180910390fd5b505050565b60008060009054906101000a900473ffffffffffffffffffffffffffffffffffffffff169050816000806101000a81548173ffffffffffffffffffffffffffffffffffffffff021916908373ffffffffffffffffffffffffffffffffffffffff1602179055508173ffffffffffffffffffffffffffffffffffffffff168173ffffffffffffffffffffffffffffffffffffffff167f8be0079c531659141344cd1fd0a4f28419497f9722a3daafe3b4186f6b6457e060405160405180910390a35050565b600073ffffffffffffffffffffffffffffffffffffffff168273ffffffffffffffffffffffffffffffffffffffff160361119d57816040517f5b08ba1800000000000000000000000000000000000000000000000000000000815260040161119491906121c9565b60405180910390fd5b80600660008573ffffffffffffffffffffffffffffffffffffffff1673ffffffffffffffffffffffffffffffffffffffff16815260200190815260200160002060008473ffffffffffffffffffffffffffffffffffffffff1673ffffffffffffffffffffffffffffffffffffffff16815260200190815260200160002060006101000a81548160ff0219169083151502179055508173ffffffffffffffffffffffffffffffffffffffff168373ffffffffffffffffffffffffffffffffffffffff167f17307eab39ab6107e8899845ad3d59bd9653f200f220920489ca2b5937696c318360405161128e9190612058565b60405180910390a3505050565b60008373ffffffffffffffffffffffffffffffffffffffff163b111561144c578273ffffffffffffffffffffffffffffffffffffffff1663150b7a026112df610db1565b8685856040518563ffffffff1660e01b81526004016113019493929190612765565b6020604051808303816000875af192505050801561133d57506040513d601f19601f8201168201806040525081019061133a91906127c6565b60015b6113c1573d806000811461136d576040519150601f19603f3d011682016040523d82523d6000602084013e611372565b606091505b5060008151036113b957836040517f64a0ae920000000000000000000000000000000000000000000000000000000081526004016113b091906121c9565b60405180910390fd5b805181602001fd5b63150b7a0260e01b7bffffffffffffffffffffffffffffffffffffffffffffffffffffffff1916817bffffffffffffffffffffffffffffffffffffffffffffffffffffffff19161461144a57836040517f64a0ae9200000000000000000000000000000000000000000000000000000000815260040161144191906121c9565b60405180910390fd5b505b50505050565b60606040518060600160405280602a8152602001612886602a9139905090565b60606000600161148184611ccc565b01905060008167ffffffffffffffff8111156114a05761149f612370565b5b6040519080825280601f01601f1916602001820160405280156114d25781602001600182028036833780820191505090505b509050600082602001820190505b600115611535578080600190039150507f3031323334353637383961626364656600000000000000000000000000000000600a86061a8153600a8581611529576115286127f3565b5b049450600085036114e0575b819350505050919050565b60007f01ffc9a7000000000000000000000000000000000000000000000000000000007bffffffffffffffffffffffffffffffffffffffffffffffffffffffff1916827bffffffffffffffffffffffffffffffffffffffffffffffffffffffff1916149050919050565b60006003600083815260200190815260200160002060009054906101000a900473ffffffffffffffffffffffffffffffffffffffff169050919050565b80806116205750600073ffffffffffffffffffffffffffffffffffffffff168273ffffffffffffffffffffffffffffffffffffffff1614155b1561175457600061163084610cec565b9050600073ffffffffffffffffffffffffffffffffffffffff168373ffffffffffffffffffffffffffffffffffffffff161415801561169b57508273ffffffffffffffffffffffffffffffffffffffff168173ffffffffffffffffffffffffffffffffffffffff1614155b80156116ae57506116ac8184610af0565b155b156116f057826040517fa9fbf51f0000000000000000000000000000000000000000000000000000000081526004016116e791906121c9565b60405180910390fd5b811561175257838573ffffffffffffffffffffffffffffffffffffffff168273ffffffffffffffffffffffffffffffffffffffff167f8c5be1e5ebec7d5bd14f71427d1e84f3dd0314c0f7b2291e5b200ac8c7c3b92560405160405180910390a45b505b836005600085815260200190815260200160002060006101000a81548173ffffffffffffffffffffffffffffffffffffffff021916908373ffffffffffffffffffffffffffffffffffffffff16021790555050505050565b6000806117b8846115aa565b9050600073ffffffffffffffffffffffffffffffffffffffff168373ffffffffffffffffffffffffffffffffffffffff16146117fa576117f9818486611e1f565b5b600073ffffffffffffffffffffffffffffffffffffffff168173ffffffffffffffffffffffffffffffffffffffff161461188b5761183c6000856000806115e7565b6001600460008373ffffffffffffffffffffffffffffffffffffffff1673ffffffffffffffffffffffffffffffffffffffff168152602001908152602001600020600082825403925050819055505b600073ffffffffffffffffffffffffffffffffffffffff168573ffffffffffffffffffffffffffffffffffffffff161461190e576001600460008773ffffffffffffffffffffffffffffffffffffffff1673ffffffffffffffffffffffffffffffffffffffff168152602001908152602001600020600082825401925050819055505b846003600086815260200190815260200160002060006101000a81548173ffffffffffffffffffffffffffffffffffffffff021916908373ffffffffffffffffffffffffffffffffffffffff160217905550838573ffffffffffffffffffffffffffffffffffffffff168273ffffffffffffffffffffffffffffffffffffffff167fddf252ad1be2c89b69c2b068fc378daa952ba7f163c4a11628f55a4df523b3ef60405160405180910390a4809150509392505050565b600980549050600a600083815260200190815260200160002081905550600981908060018154018082558091505060019003906000526020600020016000909190919091505550565b6000611a1a8361082b565b9050600060086000848152602001908152602001600020549050818114611aff576000600760008673ffffffffffffffffffffffffffffffffffffffff1673ffffffffffffffffffffffffffffffffffffffff168152602001908152602001600020600084815260200190815260200160002054905080600760008773ffffffffffffffffffffffffffffffffffffffff1673ffffffffffffffffffffffffffffffffffffffff168152602001908152602001600020600084815260200190815260200160002081905550816008600083815260200190815260200160002081905550505b6008600084815260200190815260200160002060009055600760008573ffffffffffffffffffffffffffffffffffffffff1673ffffffffffffffffffffffffffffffffffffffff16815260200190815260200160002060008381526020019081526020016000206000905550505050565b60006001600980549050611b849190612822565b90506000600a6000848152602001908152602001600020549050600060098381548110611bb457611bb361261e565b5b906000526020600020015490508060098381548110611bd657611bd561261e565b5b906000526020600020018190555081600a600083815260200190815260200160002081905550600a6000858152602001908152602001600020600090556009805480611c2557611c24612856565b5b6001900381819060005260206000200160009055905550505050565b60006001611c4e8461082b565b611c589190612822565b905081600760008573ffffffffffffffffffffffffffffffffffffffff1673ffffffffffffffffffffffffffffffffffffffff168152602001908152602001600020600083815260200190815260200160002081905550806008600084815260200190815260200160002081905550505050565b600080600090507a184f03e93ff9f4daa797ed6e38ed64bf6a1f0100000000000000008310611d2a577a184f03e93ff9f4daa797ed6e38ed64bf6a1f0100000000000000008381611d2057611d1f6127f3565b5b0492506040810190505b6d04ee2d6d415b85acef81000000008310611d67576d04ee2d6d415b85acef81000000008381611d5d57611d5c6127f3565b5b0492506020810190505b662386f26fc100008310611d9657662386f26fc100008381611d8c57611d8b6127f3565b5b0492506010810190505b6305f5e1008310611dbf576305f5e1008381611db557611db46127f3565b5b0492506008810190505b6127108310611de4576127108381611dda57611dd96127f3565b5b0492506004810190505b60648310611e075760648381611dfd57611dfc6127f3565b5b0492506002810190505b600a8310611e16576001810190505b80915050919050565b611e2a838383611ee3565b611ede57600073ffffffffffffffffffffffffffffffffffffffff168373ffffffffffffffffffffffffffffffffffffffff1603611e9f57806040517f7e273289000000000000000000000000000000000000000000000000000000008152600401611e96919061225f565b60405180910390fd5b81816040517f177e802f000000000000000000000000000000000000000000000000000000008152600401611ed59291906125f5565b60405180910390fd5b505050565b60008073ffffffffffffffffffffffffffffffffffffffff168373ffffffffffffffffffffffffffffffffffffffff1614158015611f9b57508273ffffffffffffffffffffffffffffffffffffffff168473ffffffffffffffffffffffffffffffffffffffff161480611f5c5750611f5b8484610af0565b5b80611f9a57508273ffffffffffffffffffffffffffffffffffffffff16611f8283610d74565b73ffffffffffffffffffffffffffffffffffffffff16145b5b90509392505050565b6000604051905090565b600080fd5b600080fd5b60007fffffffff0000000000000000000000000000000000000000000000000000000082169050919050565b611fed81611fb8565b8114611ff857600080fd5b50565b60008135905061200a81611fe4565b92915050565b60006020828403121561202657612025611fae565b5b600061203484828501611ffb565b91505092915050565b60008115159050919050565b6120528161203d565b82525050565b600060208201905061206d6000830184612049565b92915050565b600081519050919050565b600082825260208201905092915050565b60005b838110156120ad578082015181840152602081019050612092565b60008484015250505050565b6000601f19601f8301169050919050565b60006120d582612073565b6120df818561207e565b93506120ef81856020860161208f565b6120f8816120b9565b840191505092915050565b6000602082019050818103600083015261211d81846120ca565b905092915050565b6000819050919050565b61213881612125565b811461214357600080fd5b50565b6000813590506121558161212f565b92915050565b60006020828403121561217157612170611fae565b5b600061217f84828501612146565b91505092915050565b600073ffffffffffffffffffffffffffffffffffffffff82169050919050565b60006121b382612188565b9050919050565b6121c3816121a8565b82525050565b60006020820190506121de60008301846121ba565b92915050565b6121ed816121a8565b81146121f857600080fd5b50565b60008135905061220a816121e4565b92915050565b6000806040838503121561222757612226611fae565b5b6000612235858286016121fb565b925050602061224685828601612146565b9150509250929050565b61225981612125565b82525050565b60006020820190506122746000830184612250565b92915050565b60008060006060848603121561229357612292611fae565b5b60006122a1868287016121fb565b93505060206122b2868287016121fb565b92505060406122c386828701612146565b9150509250925092565b6000602082840312156122e3576122e2611fae565b5b60006122f1848285016121fb565b91505092915050565b6123038161203d565b811461230e57600080fd5b50565b600081359050612320816122fa565b92915050565b6000806040838503121561233d5761233c611fae565b5b600061234b858286016121fb565b925050602061235c85828601612311565b9150509250929050565b600080fd5b600080fd5b7f4e487b7100000000000000000000000000000000000000000000000000000000600052604160045260246000fd5b6123a8826120b9565b810181811067ffffffffffffffff821117156123c7576123c6612370565b5b80604052505050565b60006123da611fa4565b90506123e6828261239f565b919050565b600067ffffffffffffffff82111561240657612405612370565b5b61240f826120b9565b9050602081019050919050565b82818337600083830152505050565b600061243e612439846123eb565b6123d0565b90508281526020810184848401111561245a5761245961236b565b5b61246584828561241c565b509392505050565b600082601f83011261248257612481612366565b5b813561249284826020860161242b565b91505092915050565b600080600080608085870312156124b5576124b4611fae565b5b60006124c3878288016121fb565b94505060206124d4878288016121fb565b93505060406124e587828801612146565b925050606085013567ffffffffffffffff81111561250657612505611fb3565b5b6125128782880161246d565b91505092959194509250565b6000806040838503121561253557612534611fae565b5b6000612543858286016121fb565b9250506020612554858286016121fb565b9150509250929050565b7f4e487b7100000000000000000000000000000000000000000000000000000000600052602260045260246000fd5b600060028204905060018216806125a557607f821691505b6020821081036125b8576125b761255e565b5b50919050565b60006060820190506125d360008301866121ba565b6125e06020830185612250565b6125ed60408301846121ba565b949350505050565b600060408201905061260a60008301856121ba565b6126176020830184612250565b9392505050565b7f4e487b7100000000000000000000000000000000000000000000000000000000600052603260045260246000fd5b7f4e487b7100000000000000000000000000000000000000000000000000000000600052601160045260246000fd5b600061268782612125565b915061269283612125565b92508282019050808211156126aa576126a961264d565b5b92915050565b600081905092915050565b60006126c682612073565b6126d081856126b0565b93506126e081856020860161208f565b80840191505092915050565b60006126f882856126bb565b915061270482846126bb565b91508190509392505050565b600081519050919050565b600082825260208201905092915050565b600061273782612710565b612741818561271b565b935061275181856020860161208f565b61275a816120b9565b840191505092915050565b600060808201905061277a60008301876121ba565b61278760208301866121ba565b6127946040830185612250565b81810360608301526127a6818461272c565b905095945050505050565b6000815190506127c081611fe4565b92915050565b6000602082840312156127dc576127db611fae565b5b60006127ea848285016127b1565b91505092915050565b7f4e487b7100000000000000000000000000000000000000000000000000000000600052601260045260246000fd5b600061282d82612125565b915061283883612125565b92508282039050818111156128505761284f61264d565b5b92915050565b7f4e487b7100000000000000000000000000000000000000000000000000000000600052603160045260246000fdfe68747470733a2f2f736f6369616c6d696e742e6170702f6170692f6e66742f696d6167653f6e616d653da26469706673582212209b969fa84f8eccf386e1383c5ff6d152a6cfc28447f08e56941b13aacd4ba8e364736f6c63430008140033",
  "linkReferences": {},
  "deployedLinkReferences": {}
}