{
  "_format": "hh-sol-artifact-1",
  "contractName": "VirtualHumanShares",
  "sourceName": "contracts/NFT/VirtualHumanShares.sol",
  "abi": [
    {
      "inputs": [
        {
          "internalType": "address",
          "name": "nft",
          "type": "address"
        },
        {
          "internalType": "address",
          "name": "smPoint",
          "type": "address"
        },
        {
          "internalType": "address",
          "name": "feeReciver",
          "type": "address"
        },
        {
          "internalType": "uint256",
          "name": "feePercent",
          "type": "uint256"
        }
      ],
      "stateMutability": "nonpayable",
      "type": "constructor"
    },
    {
      "inputs": [
        {
          "internalType": "address",
          "name": "owner",
          "type": "address"
        }
      ],
      "name": "OwnableInvalidOwner",
      "type": "error"
    },
    {
      "inputs": [
        {
          "internalType": "address",
          "name": "account",
          "type": "address"
        }
      ],
      "name": "OwnableUnauthorizedAccount",
      "type": "error"
    },
    {
      "anonymous": false,
      "inputs": [
        {
          "indexed": false,
          "internalType": "address",
          "name": "trader",
          "type": "address"
        },
        {
          "indexed": false,
          "internalType": "uint256",
          "name": "tokenId",
          "type": "uint256"
        },
        {
          "indexed": false,
          "internalType": "uint256",
          "name": "shareAmount",
          "type": "uint256"
        },
        {
          "indexed": false,
          "internalType": "uint256",
          "name": "ethAmount",
          "type": "uint256"
        },
        {
          "indexed": false,
          "internalType": "uint256",
          "name": "protocolEthAmount",
          "type": "uint256"
        },
        {
          "indexed": false,
          "internalType": "uint256",
          "name": "supply",
          "type": "uint256"
        },
        {
          "indexed": false,
          "internalType": "uint256",
          "name": "buyPoints",
          "type": "uint256"
        }
      ],
      "name": "BuyShares",
      "type": "event"
    },
    {
      "anonymous": false,
      "inputs": [
        {
          "indexed": false,
          "internalType": "uint256",
          "name": "tokenId",
          "type": "uint256"
        }
      ],
      "name": "CreateShares",
      "type": "event"
    },
    {
      "anonymous": false,
      "inputs": [
        {
          "indexed": true,
          "internalType": "address",
          "name": "previousOwner",
          "type": "address"
        },
        {
          "indexed": true,
          "internalType": "address",
          "name": "newOwner",
          "type": "address"
        }
      ],
      "name": "OwnershipTransferred",
      "type": "event"
    },
    {
      "anonymous": false,
      "inputs": [
        {
          "indexed": false,
          "internalType": "address",
          "name": "trader",
          "type": "address"
        },
        {
          "indexed": false,
          "internalType": "uint256",
          "name": "tokenId",
          "type": "uint256"
        },
        {
          "indexed": false,
          "internalType": "uint256",
          "name": "shareAmount",
          "type": "uint256"
        },
        {
          "indexed": false,
          "internalType": "uint256",
          "name": "ethAmount",
          "type": "uint256"
        },
        {
          "indexed": false,
          "internalType": "uint256",
          "name": "protocolEthAmount",
          "type": "uint256"
        },
        {
          "indexed": false,
          "internalType": "uint256",
          "name": "supply",
          "type": "uint256"
        },
        {
          "indexed": false,
          "internalType": "uint256",
          "name": "sellPoints",
          "type": "uint256"
        }
      ],
      "name": "SellShares",
      "type": "event"
    },
    {
      "inputs": [],
      "name": "MerkleRoot",
      "outputs": [
        {
          "internalType": "bytes32",
          "name": "",
          "type": "bytes32"
        }
      ],
      "stateMutability": "view",
      "type": "function"
    },
    {
      "inputs": [],
      "name": "NFT",
      "outputs": [
        {
          "internalType": "address",
          "name": "",
          "type": "address"
        }
      ],
      "stateMutability": "view",
      "type": "function"
    },
    {
      "inputs": [],
      "name": "ProtocolFeeDestination",
      "outputs": [
        {
          "internalType": "address",
          "name": "",
          "type": "address"
        }
      ],
      "stateMutability": "view",
      "type": "function"
    },
    {
      "inputs": [],
      "name": "ProtocolFeePercent",
      "outputs": [
        {
          "internalType": "uint256",
          "name": "",
          "type": "uint256"
        }
      ],
      "stateMutability": "view",
      "type": "function"
    },
    {
      "inputs": [],
      "name": "RewardConfig",
      "outputs": [
        {
          "internalType": "contract IRewardConfig",
          "name": "",
          "type": "address"
        }
      ],
      "stateMutability": "view",
      "type": "function"
    },
    {
      "inputs": [],
      "name": "SocialMintPoints",
      "outputs": [
        {
          "internalType": "contract ISocialMintPoints",
          "name": "",
          "type": "address"
        }
      ],
      "stateMutability": "view",
      "type": "function"
    },
    {
      "inputs": [
        {
          "internalType": "uint256",
          "name": "tokenId",
          "type": "uint256"
        },
        {
          "internalType": "uint256",
          "name": "amount",
          "type": "uint256"
        }
      ],
      "name": "buyShares",
      "outputs": [],
      "stateMutability": "payable",
      "type": "function"
    },
    {
      "inputs": [
        {
          "internalType": "uint256",
          "name": "tokenId",
          "type": "uint256"
        }
      ],
      "name": "createShares",
      "outputs": [],
      "stateMutability": "nonpayable",
      "type": "function"
    },
    {
      "inputs": [
        {
          "internalType": "uint256",
          "name": "tokenId",
          "type": "uint256"
        },
        {
          "internalType": "uint256",
          "name": "amount",
          "type": "uint256"
        }
      ],
      "name": "getBuyPrice",
      "outputs": [
        {
          "internalType": "uint256",
          "name": "",
          "type": "uint256"
        }
      ],
      "stateMutability": "view",
      "type": "function"
    },
    {
      "inputs": [
        {
          "internalType": "uint256",
          "name": "tokenId",
          "type": "uint256"
        },
        {
          "internalType": "uint256",
          "name": "amount",
          "type": "uint256"
        }
      ],
      "name": "getBuyPriceAfterFee",
      "outputs": [
        {
          "internalType": "uint256",
          "name": "",
          "type": "uint256"
        }
      ],
      "stateMutability": "view",
      "type": "function"
    },
    {
      "inputs": [
        {
          "internalType": "uint256",
          "name": "supply",
          "type": "uint256"
        },
        {
          "internalType": "uint256",
          "name": "amount",
          "type": "uint256"
        }
      ],
      "name": "getPrice",
      "outputs": [
        {
          "internalType": "uint256",
          "name": "",
          "type": "uint256"
        }
      ],
      "stateMutability": "pure",
      "type": "function"
    },
    {
      "inputs": [
        {
          "internalType": "uint256",
          "name": "tokenId",
          "type": "uint256"
        },
        {
          "internalType": "uint256",
          "name": "amount",
          "type": "uint256"
        }
      ],
      "name": "getSellPrice",
      "outputs": [
        {
          "internalType": "uint256",
          "name": "",
          "type": "uint256"
        }
      ],
      "stateMutability": "view",
      "type": "function"
    },
    {
      "inputs": [
        {
          "internalType": "uint256",
          "name": "tokenId",
          "type": "uint256"
        },
        {
          "internalType": "uint256",
          "name": "amount",
          "type": "uint256"
        }
      ],
      "name": "getSellPriceAfterFee",
      "outputs": [
        {
          "internalType": "uint256",
          "name": "",
          "type": "uint256"
        }
      ],
      "stateMutability": "view",
      "type": "function"
    },
    {
      "inputs": [],
      "name": "owner",
      "outputs": [
        {
          "internalType": "address",
          "name": "",
          "type": "address"
        }
      ],
      "stateMutability": "view",
      "type": "function"
    },
    {
      "inputs": [],
      "name": "renounceOwnership",
      "outputs": [],
      "stateMutability": "nonpayable",
      "type": "function"
    },
    {
      "inputs": [
        {
          "internalType": "uint256",
          "name": "tokenId",
          "type": "uint256"
        },
        {
          "internalType": "uint256",
          "name": "amount",
          "type": "uint256"
        }
      ],
      "name": "sellShares",
      "outputs": [],
      "stateMutability": "payable",
      "type": "function"
    },
    {
      "inputs": [
        {
          "internalType": "address",
          "name": "_feeDestination",
          "type": "address"
        }
      ],
      "name": "setFeeDestination",
      "outputs": [],
      "stateMutability": "nonpayable",
      "type": "function"
    },
    {
      "inputs": [
        {
          "internalType": "uint256",
          "name": "_feePercent",
          "type": "uint256"
        }
      ],
      "name": "setProtocolFeePercent",
      "outputs": [],
      "stateMutability": "nonpayable",
      "type": "function"
    },
    {
      "inputs": [
        {
          "internalType": "uint256",
          "name": "",
          "type": "uint256"
        },
        {
          "internalType": "address",
          "name": "",
          "type": "address"
        }
      ],
      "name": "sharesBalance",
      "outputs": [
        {
          "internalType": "uint256",
          "name": "",
          "type": "uint256"
        }
      ],
      "stateMutability": "view",
      "type": "function"
    },
    {
      "inputs": [
        {
          "internalType": "uint256",
          "name": "",
          "type": "uint256"
        }
      ],
      "name": "sharesSupply",
      "outputs": [
        {
          "internalType": "uint256",
          "name": "",
          "type": "uint256"
        }
      ],
      "stateMutability": "view",
      "type": "function"
    },
    {
      "inputs": [
        {
          "internalType": "address",
          "name": "newOwner",
          "type": "address"
        }
      ],
      "name": "transferOwnership",
      "outputs": [],
      "stateMutability": "nonpayable",
      "type": "function"
    }
  ],
  "bytecode": "0x60806040523480156200001157600080fd5b5060405162002225380380620022258339818101604052810190620000379190620002fc565b33600073ffffffffffffffffffffffffffffffffffffffff168173ffffffffffffffffffffffffffffffffffffffff1603620000ad5760006040517f1e4fbdf7000000000000000000000000000000000000000000000000000000008152600401620000a491906200037f565b60405180910390fd5b620000be816200019360201b60201c565b5083600260006101000a81548173ffffffffffffffffffffffffffffffffffffffff021916908373ffffffffffffffffffffffffffffffffffffffff16021790555081600360006101000a81548173ffffffffffffffffffffffffffffffffffffffff021916908373ffffffffffffffffffffffffffffffffffffffff1602179055508060048190555082600860006101000a81548173ffffffffffffffffffffffffffffffffffffffff021916908373ffffffffffffffffffffffffffffffffffffffff160217905550505050506200039c565b60008060009054906101000a900473ffffffffffffffffffffffffffffffffffffffff169050816000806101000a81548173ffffffffffffffffffffffffffffffffffffffff021916908373ffffffffffffffffffffffffffffffffffffffff1602179055508173ffffffffffffffffffffffffffffffffffffffff168173ffffffffffffffffffffffffffffffffffffffff167f8be0079c531659141344cd1fd0a4f28419497f9722a3daafe3b4186f6b6457e060405160405180910390a35050565b600080fd5b600073ffffffffffffffffffffffffffffffffffffffff82169050919050565b600062000289826200025c565b9050919050565b6200029b816200027c565b8114620002a757600080fd5b50565b600081519050620002bb8162000290565b92915050565b6000819050919050565b620002d681620002c1565b8114620002e257600080fd5b50565b600081519050620002f681620002cb565b92915050565b6000806000806080858703121562000319576200031862000257565b5b60006200032987828801620002aa565b94505060206200033c87828801620002aa565b93505060406200034f87828801620002aa565b92505060606200036287828801620002e5565b91505092959194509250565b62000379816200027c565b82525050565b60006020820190506200039660008301846200036e565b92915050565b611e7980620003ac6000396000f3fe60806040526004361061012a5760003560e01c80638da5cb5b116100ab578063c157253d1161006f578063c157253d146103c6578063cd9c712114610403578063d1a1362e14610440578063dfe641c61461046b578063f2fde38b146104a8578063fbe53234146104d15761012a565b80638da5cb5b146102ee5780639477d85d14610319578063a498342114610356578063beebc5da1461037f578063bf4988641461039b5761012a565b806340e104a7116100f257806340e104a7146102075780635cf4ee9114610244578063715018a6146102815780637c0b8de2146102985780638975c603146102c35761012a565b8063031d439a1461012f578063063a741f1461015a578063123c047a14610197578063132d3f6a146101c05780632279a970146101eb575b600080fd5b34801561013b57600080fd5b506101446104fa565b6040516101519190611584565b60405180910390f35b34801561016657600080fd5b50610181600480360381019061017c91906115d0565b610500565b60405161018e9190611584565b60405180910390f35b3480156101a357600080fd5b506101be60048036038101906101b99190611610565b61054a565b005b3480156101cc57600080fd5b506101d56107eb565b6040516101e29190611656565b60405180910390f35b610205600480360381019061020091906115d0565b6107f1565b005b34801561021357600080fd5b5061022e60048036038101906102299190611610565b610c8c565b60405161023b9190611584565b60405180910390f35b34801561025057600080fd5b5061026b600480360381019061026691906115d0565b610ca4565b6040516102789190611584565b60405180910390f35b34801561028d57600080fd5b50610296610db9565b005b3480156102a457600080fd5b506102ad610dcd565b6040516102ba91906116b2565b60405180910390f35b3480156102cf57600080fd5b506102d8610df3565b6040516102e5919061172c565b60405180910390f35b3480156102fa57600080fd5b50610303610e19565b60405161031091906116b2565b60405180910390f35b34801561032557600080fd5b50610340600480360381019061033b91906115d0565b610e42565b60405161034d9190611584565b60405180910390f35b34801561036257600080fd5b5061037d60048036038101906103789190611610565b610e74565b005b610399600480360381019061039491906115d0565b610e86565b005b3480156103a757600080fd5b506103b0611251565b6040516103bd9190611768565b60405180910390f35b3480156103d257600080fd5b506103ed60048036038101906103e891906115d0565b611277565b6040516103fa9190611584565b60405180910390f35b34801561040f57600080fd5b5061042a600480360381019061042591906115d0565b61129e565b6040516104379190611584565b60405180910390f35b34801561044c57600080fd5b506104556112e8565b60405161046291906116b2565b60405180910390f35b34801561047757600080fd5b50610492600480360381019061048d91906117af565b61130e565b60405161049f9190611584565b60405180910390f35b3480156104b457600080fd5b506104cf60048036038101906104ca91906117ef565b611333565b005b3480156104dd57600080fd5b506104f860048036038101906104f391906117ef565b6113b9565b005b60045481565b60008061050d8484611277565b90506000670de0b6b3a764000060045483610528919061184b565b61053291906118bc565b9050808261054091906118ed565b9250505092915050565b610552611405565b3373ffffffffffffffffffffffffffffffffffffffff16600260009054906101000a900473ffffffffffffffffffffffffffffffffffffffff1673ffffffffffffffffffffffffffffffffffffffff16636352211e836040518263ffffffff1660e01b81526004016105c49190611584565b602060405180830381865afa1580156105e1573d6000803e3d6000fd5b505050506040513d601f19601f820116820180604052508101906106059190611936565b73ffffffffffffffffffffffffffffffffffffffff161461065b576040517f08c379a0000000000000000000000000000000000000000000000000000000008152600401610652906119c0565b60405180910390fd5b60006007600083815260200190815260200160002054146106b1576040517f08c379a00000000000000000000000000000000000000000000000000000000081526004016106a890611a2c565b60405180910390fd5b600260009054906101000a900473ffffffffffffffffffffffffffffffffffffffff1673ffffffffffffffffffffffffffffffffffffffff166323b872dd3330846040518463ffffffff1660e01b815260040161071093929190611a4c565b600060405180830381600087803b15801561072a57600080fd5b505af115801561073e573d6000803e3d6000fd5b505050506001600760008381526020019081526020016000208190555060016006600083815260200190815260200160002060003373ffffffffffffffffffffffffffffffffffffffff1673ffffffffffffffffffffffffffffffffffffffff168152602001908152602001600020819055507f1a450f70d6a4ceb645f20d91fb60d69fbaa83710a70d94612472436519842c76816040516107e09190611584565b60405180910390a150565b60055481565b6107fa3361148c565b1561083a576040517f08c379a000000000000000000000000000000000000000000000000000000000815260040161083190611acf565b60405180910390fd5b600060076000848152602001908152602001600020549050818111610894576040517f08c379a000000000000000000000000000000000000000000000000000000000815260040161088b90611b3b565b60405180910390fd5b60006108ab83836108a59190611b5b565b84610ca4565b90506000670de0b6b3a7640000600454836108c6919061184b565b6108d091906118bc565b9050836006600087815260200190815260200160002060003373ffffffffffffffffffffffffffffffffffffffff1673ffffffffffffffffffffffffffffffffffffffff168152602001908152602001600020541015610965576040517f08c379a000000000000000000000000000000000000000000000000000000000815260040161095c90611bdb565b60405180910390fd5b836006600087815260200190815260200160002060003373ffffffffffffffffffffffffffffffffffffffff1673ffffffffffffffffffffffffffffffffffffffff168152602001908152602001600020546109c19190611b5b565b6006600087815260200190815260200160002060003373ffffffffffffffffffffffffffffffffffffffff1673ffffffffffffffffffffffffffffffffffffffff168152602001908152602001600020819055508383610a219190611b5b565b600760008781526020019081526020016000208190555060003373ffffffffffffffffffffffffffffffffffffffff168284610a5d9190611b5b565b604051610a6990611c2c565b60006040518083038185875af1925050503d8060008114610aa6576040519150601f19603f3d011682016040523d82523d6000602084013e610aab565b606091505b505090506000600360009054906101000a900473ffffffffffffffffffffffffffffffffffffffff1673ffffffffffffffffffffffffffffffffffffffff1683604051610af790611c2c565b60006040518083038185875af1925050503d8060008114610b34576040519150601f19603f3d011682016040523d82523d6000602084013e610b39565b606091505b50509050600860009054906101000a900473ffffffffffffffffffffffffffffffffffffffff1673ffffffffffffffffffffffffffffffffffffffff166340c10f193364174876e80086610b8d91906118bc565b6040518363ffffffff1660e01b8152600401610baa929190611c41565b600060405180830381600087803b158015610bc457600080fd5b505af1158015610bd8573d6000803e3d6000fd5b50505050818015610be65750805b610c25576040517f08c379a0000000000000000000000000000000000000000000000000000000008152600401610c1c90611cb6565b60405180910390fd5b7fed9fa9a2a3dfd55936655551d3c9377e9d437e7d4a5a06671a269e81360d9ea333888887878b8b610c579190611b5b565b64174876e8008a610c6891906118bc565b604051610c7b9796959493929190611cd6565b60405180910390a150505050505050565b60076020528060005260406000206000915090505481565b60008060008414610cfb57600360018086610cbf9190611b5b565b6002610ccb919061184b565b610cd591906118ed565b600186610ce29190611b5b565b610cec919061184b565b610cf691906118bc565b610cfe565b60005b905060008085148015610d115750600184145b610d78576003600185600188610d279190611b5b565b610d3191906118ed565b6002610d3d919061184b565b610d4791906118ed565b85600188610d559190611b5b565b610d5f91906118ed565b610d69919061184b565b610d7391906118bc565b610d7b565b60005b905060008282610d8b9190611b5b565b9050612710670de0b6b3a764000082610da4919061184b565b610dae91906118bc565b935050505092915050565b610dc1611405565b610dcb600061149f565b565b600260009054906101000a900473ffffffffffffffffffffffffffffffffffffffff1681565b600860009054906101000a900473ffffffffffffffffffffffffffffffffffffffff1681565b60008060009054906101000a900473ffffffffffffffffffffffffffffffffffffffff16905090565b6000610e6c826007600086815260200190815260200160002054610e669190611b5b565b83610ca4565b905092915050565b610e7c611405565b8060048190555050565b610e8f3361148c565b15610ecf576040517f08c379a0000000000000000000000000000000000000000000000000000000008152600401610ec690611acf565b60405180910390fd5b60006007600084815260200190815260200160002054905060008111610f2a576040517f08c379a0000000000000000000000000000000000000000000000000000000008152600401610f2190611db7565b60405180910390fd5b6000610f368284610ca4565b90506000670de0b6b3a764000060045483610f51919061184b565b610f5b91906118bc565b90508082610f6991906118ed565b341015610fab576040517f08c379a0000000000000000000000000000000000000000000000000000000008152600401610fa290611e23565b60405180910390fd5b836006600087815260200190815260200160002060003373ffffffffffffffffffffffffffffffffffffffff1673ffffffffffffffffffffffffffffffffffffffff1681526020019081526020016000205461100791906118ed565b6006600087815260200190815260200160002060003373ffffffffffffffffffffffffffffffffffffffff1673ffffffffffffffffffffffffffffffffffffffff16815260200190815260200160002081905550838361106791906118ed565b60076000878152602001908152602001600020819055506000600360009054906101000a900473ffffffffffffffffffffffffffffffffffffffff1673ffffffffffffffffffffffffffffffffffffffff16826040516110c690611c2c565b60006040518083038185875af1925050503d8060008114611103576040519150601f19603f3d011682016040523d82523d6000602084013e611108565b606091505b50509050600860009054906101000a900473ffffffffffffffffffffffffffffffffffffffff1673ffffffffffffffffffffffffffffffffffffffff166340c10f193364174876e8008561115c91906118bc565b6040518363ffffffff1660e01b8152600401611179929190611c41565b600060405180830381600087803b15801561119357600080fd5b505af11580156111a7573d6000803e3d6000fd5b50505050806111eb576040517f08c379a00000000000000000000000000000000000000000000000000000000081526004016111e290611cb6565b60405180910390fd5b7f261bde805143b313494a10e1696be7a4c4c13efc0e1274c601504c8d064948aa33878786868a8a61121d91906118ed565b64174876e8008961122e91906118bc565b6040516112419796959493929190611cd6565b60405180910390a1505050505050565b600160009054906101000a900473ffffffffffffffffffffffffffffffffffffffff1681565b6000611296600760008581526020019081526020016000205483610ca4565b905092915050565b6000806112ab8484610e42565b90506000670de0b6b3a7640000600454836112c6919061184b565b6112d091906118bc565b905080826112de9190611b5b565b9250505092915050565b600360009054906101000a900473ffffffffffffffffffffffffffffffffffffffff1681565b6006602052816000526040600020602052806000526040600020600091509150505481565b61133b611405565b600073ffffffffffffffffffffffffffffffffffffffff168173ffffffffffffffffffffffffffffffffffffffff16036113ad5760006040517f1e4fbdf70000000000000000000000000000000000000000000000000000000081526004016113a491906116b2565b60405180910390fd5b6113b68161149f565b50565b6113c1611405565b80600360006101000a81548173ffffffffffffffffffffffffffffffffffffffff021916908373ffffffffffffffffffffffffffffffffffffffff16021790555050565b61140d611563565b73ffffffffffffffffffffffffffffffffffffffff1661142b610e19565b73ffffffffffffffffffffffffffffffffffffffff161461148a5761144e611563565b6040517f118cdaa700000000000000000000000000000000000000000000000000000000815260040161148191906116b2565b60405180910390fd5b565b600080823b905060008111915050919050565b60008060009054906101000a900473ffffffffffffffffffffffffffffffffffffffff169050816000806101000a81548173ffffffffffffffffffffffffffffffffffffffff021916908373ffffffffffffffffffffffffffffffffffffffff1602179055508173ffffffffffffffffffffffffffffffffffffffff168173ffffffffffffffffffffffffffffffffffffffff167f8be0079c531659141344cd1fd0a4f28419497f9722a3daafe3b4186f6b6457e060405160405180910390a35050565b600033905090565b6000819050919050565b61157e8161156b565b82525050565b60006020820190506115996000830184611575565b92915050565b600080fd5b6115ad8161156b565b81146115b857600080fd5b50565b6000813590506115ca816115a4565b92915050565b600080604083850312156115e7576115e661159f565b5b60006115f5858286016115bb565b9250506020611606858286016115bb565b9150509250929050565b6000602082840312156116265761162561159f565b5b6000611634848285016115bb565b91505092915050565b6000819050919050565b6116508161163d565b82525050565b600060208201905061166b6000830184611647565b92915050565b600073ffffffffffffffffffffffffffffffffffffffff82169050919050565b600061169c82611671565b9050919050565b6116ac81611691565b82525050565b60006020820190506116c760008301846116a3565b92915050565b6000819050919050565b60006116f26116ed6116e884611671565b6116cd565b611671565b9050919050565b6000611704826116d7565b9050919050565b6000611716826116f9565b9050919050565b6117268161170b565b82525050565b6000602082019050611741600083018461171d565b92915050565b6000611752826116f9565b9050919050565b61176281611747565b82525050565b600060208201905061177d6000830184611759565b92915050565b61178c81611691565b811461179757600080fd5b50565b6000813590506117a981611783565b92915050565b600080604083850312156117c6576117c561159f565b5b60006117d4858286016115bb565b92505060206117e58582860161179a565b9150509250929050565b6000602082840312156118055761180461159f565b5b60006118138482850161179a565b91505092915050565b7f4e487b7100000000000000000000000000000000000000000000000000000000600052601160045260246000fd5b60006118568261156b565b91506118618361156b565b925082820261186f8161156b565b915082820484148315176118865761188561181c565b5b5092915050565b7f4e487b7100000000000000000000000000000000000000000000000000000000600052601260045260246000fd5b60006118c78261156b565b91506118d28361156b565b9250826118e2576118e161188d565b5b828204905092915050565b60006118f88261156b565b91506119038361156b565b925082820190508082111561191b5761191a61181c565b5b92915050565b60008151905061193081611783565b92915050565b60006020828403121561194c5761194b61159f565b5b600061195a84828501611921565b91505092915050565b600082825260208201905092915050565b7f4f6e6c79204e4654206f776e65722063616e2063726561746520736861726573600082015250565b60006119aa602083611963565b91506119b582611974565b602082019050919050565b600060208201905081810360008301526119d98161199d565b9050919050565b7f53686172657320616c7265616479206372656174656400000000000000000000600082015250565b6000611a16601683611963565b9150611a21826119e0565b602082019050919050565b60006020820190508181036000830152611a4581611a09565b9050919050565b6000606082019050611a6160008301866116a3565b611a6e60208301856116a3565b611a7b6040830184611575565b949350505050565b7f636f6e7472616374206e6f7420616c6c6f776564000000000000000000000000600082015250565b6000611ab9601483611963565b9150611ac482611a83565b602082019050919050565b60006020820190508181036000830152611ae881611aac565b9050919050565b7f43616e6e6f742073656c6c20746865206c617374207368617265000000000000600082015250565b6000611b25601a83611963565b9150611b3082611aef565b602082019050919050565b60006020820190508181036000830152611b5481611b18565b9050919050565b6000611b668261156b565b9150611b718361156b565b9250828203905081811115611b8957611b8861181c565b5b92915050565b7f496e73756666696369656e742073686172657300000000000000000000000000600082015250565b6000611bc5601383611963565b9150611bd082611b8f565b602082019050919050565b60006020820190508181036000830152611bf481611bb8565b9050919050565b600081905092915050565b50565b6000611c16600083611bfb565b9150611c2182611c06565b600082019050919050565b6000611c3782611c09565b9150819050919050565b6000604082019050611c5660008301856116a3565b611c636020830184611575565b9392505050565b7f556e61626c6520746f2073656e642066756e6473000000000000000000000000600082015250565b6000611ca0601483611963565b9150611cab82611c6a565b602082019050919050565b60006020820190508181036000830152611ccf81611c93565b9050919050565b600060e082019050611ceb600083018a6116a3565b611cf86020830189611575565b611d056040830188611575565b611d126060830187611575565b611d1f6080830186611575565b611d2c60a0830185611575565b611d3960c0830184611575565b98975050505050505050565b7f536861726573206e6f7420637265617465642c2063616c6c206372656174655360008201527f686172657328746f6b656e496429206669727374000000000000000000000000602082015250565b6000611da1603483611963565b9150611dac82611d45565b604082019050919050565b60006020820190508181036000830152611dd081611d94565b9050919050565b7f496e73756666696369656e74207061796d656e74000000000000000000000000600082015250565b6000611e0d601483611963565b9150611e1882611dd7565b602082019050919050565b60006020820190508181036000830152611e3c81611e00565b905091905056fea2646970667358221220ad961f1c4f448f5814e63667817280a808a3a522cc213a7ad6200c49438fe25564736f6c63430008140033",
  "linkReferences": {},
  "deployedLinkReferences": {}
}